S01300007468655F666C61736865722E737265638C
S11300000C9443000C9460000C9460000C94600009
S11300100C9495030C9460000C9460000C946000A4
S11300200C9460000C9460000C9460000C946000CC
S11300300C9460000C9460000C9460000C946000BC
S11300400C9460000C9460000C9460000C946000AC
S11300500C9460000C9460000C9460000C9460009C
S11300600C9469000C94600005A84CCDB2D44EB930
S11300703836A9020C50B9918688083CA6AAAA2A47
S1130080BE000000803F11241FBECFEFD8E0DEBFCA
S1130090CDBF12E0A0E0B1E0EEE9FFE002C00590C0
S11300A00D92A831B107D9F725E0A8E1B2E001C06B
S11300B01D92A13CB207E1F70E94BE040C94CD0747
S11300C00C940000880F8093BA0085EC8093BC00E8
S11300D008951F920F920FB60F9211248F939F933E
S11300E0EF93FF938091B900887F803649F48FEFB6
S11300F080931902ECEBF0E08081856C808363C00F
S11301008091B900887F803861F59091BB0080911F
S113011019028F3F41F490931902ECEBF0E08081D7
S1130120856C808350C0E0911902F0E0E75EFC4FDB
S11301309083809119028F5F809319028091190234
S11301408F3F31F0ECEBF0E08081856C80833BC025
S1130150ECEBF0E080818F7B8083808185688083F5
S113016032C08091B900887F883B41F59091BB00F3
S1130170809119028F3F11F490931902E0911902B2
S1130180F0E0E65EFD4F80818093BB008091190210
S11301908F5F80931902809119028F3F31F0ECEB4D
S11301A0F0E08081856C80830EC0ECEBF0E0808110
S11301B08F7B808380818568808305C0ECEBF0E0D1
S11301C0808185648083FF91EF919F918F910F903F
S11301D00FBE0F901F9018954F925F926F927F926F
S11301E08F929F92AF92BF92CF92DF92EF92FF9243
S11301F00F931F93CF93DF93CDB7DEB72A970FB634
S1130200F894DEBF0FBECDBF49015A012701380162
S1130210DA86C98620E030E044EB53E40E941506F8
S113022020ED3FE049E450E40E94250720E030E05F
S113023044E353E40E9462056B017C0120E030E05A
S1130240A901C501B4010E94200718165CF420E03E
S113025030E040E85FE3C501B4010E9458058823FB
S11302602CF40CC0812C912C540108C00F2E812C2D
S1130270912CF0E8AF2EFFE3BF2EF02D20E030E00C
S1130280A901C301B2010E94200718165CF420E002
S113029030E040E85FE3C301B2010E9458058823BF
S11302A02CF40CC0412C512C320108C00F2E412CCF
S11302B0512CF0E86F2EFFE37F2EF02D2CE73AE06F
S11302C046E050E4C701B6010E94580588230CF0AB
S11302D06EC020E030E04FE753E4C301B2010E9456
S11302E0250720E030E040E450E40E9462052B0141
S11302F03C01C701B6010E945D0569837A838B8343
S11303009C83A70196016AE87AE086E89FE30E944D
S1130310EB040E945D056B017C0129813A814B81CC
S11303205C81C501B4010E942507A70196010E94C2
S1130330620520E030E040E85FE30E94EC04A301A2
S113034092010E9425070E94D4058B01A701960102
S113035069817A818B819C810E9462059B01AC0139
S113036060E070E080E89FE30E94EB04A501940143
S11303700E94250720E030E040E85FE30E94EC049F
S1130380A30192010E9425070E94D4057B01A501C7
S1130390940160E070E080E89FE30E94EB04A30115
S11303A092010E9425070E94D4056B0106C12BE827
S11303B03AE046E850E4C701B6010E945805882394
S11303C00CF07EC02CE73AE046E050E4C701B601E9
S11303D00E94EB046B017C0120E030E04FE753E422
S11303E0C301B2010E94250720E030E040E450E45C
S11303F00E9462052B013C01C701B6010E945D0504
S113040069837A838B839C83A70196016AE87AE0E7
S113041086E89FE30E94EB040E945D056D837E8362
S11304208F83988729813A814B815C81C501B4010E
S11304300E9425072D813E814F8158850E946205C7
S113044020E030E040E85FE30E94EC04A301920165
S11304500E9425070E94D4057B012D813E814F8196
S1130460588569817A818B819C810E9462059B01F8
S1130470AC0160E070E080E89FE30E94EB04A5011A
S113048094010E94250720E030E040E85FE30E94E9
S1130490EC04A30192010E9425070E94D4056B017C
S11304A0A501940160E070E080E89FE30E94EB0402
S11304B0A30192010E9425070E94D4058B017DC0EF
S11304C02BE83AE046E850E4C701B6010E94EB0489
S11304D06B017C0120E030E04FE753E4C301B2013B
S11304E00E94250720E030E040E450E40E946205C9
S11304F02B013C01C701B6010E945D0569837A8323
S11305008B839C83A70196016AE87AE086E89FE3DF
S11305100E94EB040E945D056D837E838F83988720
S113052029813A814B815C81C501B4010E94250770
S11305302D813E814F8158850E94620520E030E084
S113054040E85FE30E94EC04A30192010E942507A6
S11305500E94D4056B012D813E814F8158856981AC
S11305607A818B819C810E9462059B01AC0160E0D1
S113057070E080E89FE30E94EB04A50194010E94CF
S1130580250720E030E040E85FE30E94EC04A3018B
S113059092010E9425070E94D4058B01A5019401B4
S11305A060E070E080E89FE30E94EB04A301920105
S11305B00E9425070E94D4057B01E985FA851183F1
S11305C00083F382E282D582C4822A960FB6F8941D
S11305D0DEBF0FBECDBFDF91CF911F910F91FF9072
S11305E0EF90DF90CF90BF90AF909F908F907F90CF
S11305F06F905F904F900895AF92BF92CF92DF9229
S1130600EF92FF920F931F93CF93DF9310922204E4
S1130610109223041092240410922504C8E1D4E01B
S11306200F2EF4EBAF2EB12CF02D888187BD8A817B
S113063088BD8C81F5018083E0902604F090270426
S1130640009128041091290420911E0430911F0464
S1130650409120045091210460912204709123045C
S113066080912404909125046E010E94EC0089EF8E
S113067090E00197F1F700C0000020E030E040E88E
S11306805FE360912204709123048091240490918B
S113069025040E94EC046093220470932304809345
S11306A024049093250420E030E044EB53E40E94BA
S11306B0580588230CF4B9CF109222041092230415
S11306C0109224041092250480E090E0A0E8BFE397
S11306D080931E0490931F04A0932004B0932104DC
S11306E08093260490932704A0932804B0932904AC
S11306F0DF91CF911F910F91FF90EF90DF90CF90FA
S1130700BF90AF900895E8E6F0E080818260808336
S1130710ECE6F0E080818360808380818C6080835C
S1130720808180638083789408951F920F920FB61E
S11307300F9211242F938F939F93EF93FF9396B16E
S113074080911802982786B180931802892F8370AC
S113075059F1E09102018E2F880F880F80930201D6
S1130760E6B1E370E82BE0930201EF70F0E0E85F9C
S1130770FE4F8081209105012B3F30F0181624F4A0
S11307808FEF8093050110C020910501253028F4D6
S113079088231CF41092050107C020910501880FDD
S11307A0880F820F80930501892F8C7069F1E09185
S11307B001018E2F880F880F80930101E6B1E69521
S11307C0E695E370E82BE0930101EF70F0E0E85F59
S11307D0FE4F8081209104012B3F30F0181624F441
S11307E08FEF8093040110C020910401253028F478
S11307F088231CF41092040107C020910401880F7F
S1130800880F820F80930401907369F1E0910001D5
S11308108E2F880F880F80930001E6B1E295EF7068
S1130820E370E82BE0930001EF70F0E0E85FFE4F27
S11308308081909103019B3F30F0181624F48FEFD0
S11308408093030110C090910301953028F488230C
S11308501CF41092030107C090910301880F880FC4
S1130860890F80930301FF91EF919F918F912F91B5
S11308700F900FBE0F901F90189520910601309194
S113088007011216130644F5FC01280F391F40E036
S113089050E09191973339F480818093C005818130
S11308A08093BF0516C0923091F48081DA01A2577B
S11308B0BB4F8C938181DA01A45ABB4F8C93828104
S11308C0DA01A65DBB4F8C934F5F5F4F02C09F352B
S11308D019F0E217F307E9F6089520918E048FEFDB
S11308E090E0FC01E21BF109E85EFE4F20812093B9
S11308F0B40020915C04FC01E21BF109E85EFE4FA8
S1130900208128BD20912A04821B9109FC01E85E04
S1130910FE4F808187BD0895DC01E0ECF4E02FEB0D
S113092035E08D918193E217F307D9F70895539A2F
S1130930569A559A8AB188668AB987B1807C87B9F4
S113094088B18F6388B9089584B5836084BDE0EB72
S1130950F0E080818360808384B5806F84BD808172
S11309608063808385B5816085BDE1EBF0E08081A3
S11309708160808316BC1092B20008950E9497048F
S11309800E94A4040E94830389E60E946200789472
S1130990CEE8D4E00CE514E00F2EFAE2EF2EF4E0FA
S11309A0FF2EF02D89E193E00E948C0480EC94E00A
S11309B00E943D048881811108C0F8018081811161
S11309C004C0F7018081882319F00E946D04EACFE6
S11309D00E94FC02E7CF5058BB27AA270E940305B8
S11309E00C94D2060E94990638F00E94A00620F0CA
S11309F039F49F3F19F426F40C9496060EF4E0950E
S1130A00E7FB0C948206E92F0E94F70658F3BA1705
S1130A10620773078407950720F079F4A6F50C9410
S1130A2019070EF4E0950B2EBA2FA02D0B01B90176
S1130A3090010C01CA01A0011124FF27591B99F050
S1130A40593F50F4503E68F11A16F040A22F232F5C
S1130A50342F4427585FF3CF469537952795A795AC
S1130A60F0405395C9F77EF41F16BA0B620B730B53
S1130A70840BBAF09150A1F0FF0FBB1F661F771FC4
S1130A80881FC2F70EC0BA0F621F731F841F48F479
S1130A90879577956795B795F7959E3F08F0B0CF02
S1130AA09395880F08F09927EE0F979587950895E9
S1130AB00E945E0608F481E008950E94A906E39569
S1130AC00C94E3060E9476050C94D2060E94A006BC
S1130AD058F00E94990640F029F45F3F29F00C94E5
S1130AE0820651110C941A070C9496060E94F7067C
S1130AF068F39923B1F3552391F3951B550BBB2749
S1130B00AA2762177307840738F09F5F5F4F220F8D
S1130B10331F441FAA1FA9F335D00E2E3AF0E0E884
S1130B2032D091505040E695001CCAF72BD0FE2FCE
S1130B3029D0660F771F881FBB1F26173707480762
S1130B40AB07B0E809F0BB0B802DBF01FF2793581A
S1130B505F4F3AF09E3F510578F00C9482060C9456
S1130B601A075F3FE4F3983ED4F38695779567952B
S1130B70B795F7959F5FC9F7880F911D969587954F
S1130B8097F90895E1E0660F771F881FBB1F62176E
S1130B9073078407BA0720F0621B730B840BBA0B2C
S1130BA0EE1F88F7E09508950E94DB056894B11163
S1130BB00C941A0708950E94FF0688F09F5798F036
S1130BC0B92F9927B751B0F0E1F0660F771F881F4E
S1130BD0991F1AF0BA95C9F714C0B13091F00E9468
S1130BE01907B1E008950C941907672F782F882707
S1130BF0B85F39F0B93FCCF3869577956795B3958F
S1130C00D9F73EF490958095709561957F4F8F4FFD
S1130C109F4F08950E94990620F019F00E94A006A3
S1130C2050F40C9496060C941A07E92F0E94F706C8
S1130C3088F35523B1F3E7FB62177307840795071D
S1130C40A8F189F3E92FFF2788232AF03197660F4B
S1130C50771F881FDAF7952F5527442332F09150D8
S1130C605040220F331F441FD2F7BB27E91BF50B5B
S1130C70621B730B840BB109B1F222F4620F731F70
S1130C80841FB11D31972AF0660F771F881FBB1F81
S1130C90EFCF9150504062F041F0882332F0660F5C
S1130CA0771F881F91505040C1F793950C94880684
S1130CB08695779567959F5FD9F7F7CF990F0008C9
S1130CC0550FAA0BE0E8FEEF16161706E807F9071A
S1130CD0C0F012161306E407F50798F0621B730BB5
S1130CE0840B950B39F40A2661F0232B242B252B36
S1130CF021F408950A2609F4A140A6958FEF811DD9
S1130D00811D089597F99F6780E870E060E0089579
S1130D109F3F31F0915020F4879577956795B7956B
S1130D20880F911D9695879597F908959FEF80EC0C
S1130D30089500240A94161617061806090608953D
S1130D4000240A94121613061406050608950C943A
S1130D5096060E94FF06D8F3E894E0E0BB279F576D
S1130D60F0F02AED3FE049EC06C0EE0FBB0F661F22
S1130D70771F881F28F0B23A62077307840728F0A8
S1130D80B25A620B730B840BE3959A9572F7803811
S1130D9030F49A95BB0F661F771F881FD2F79048CF
S1130DA00C948A06092E0394000C11F4882352F043
S1130DB0BB0F40F4BF2B11F460FF04C06F5F7F4F83
S1130DC08F4F9F4F0895EF93E0FF07C0A2EA2AEDEB
S1130DD03FE049EC5FEB0E9403050E94D2060F90AE
S1130DE0039401FC9058E8E6F0E00C94920757FD58
S1130DF09058440F551F59F05F3F71F04795880F85
S1130E0097FB991F61F09F3F79F08795089512161B
S1130E1013061406551FF2CF4695F1DF08C01616C7
S1130E2017061806991FF1CF869571056105089478
S1130E300895E894BB2766277727CB0197F908958F
S1130E400E945E0608F48FEF08950E9438070C9400
S1130E50D2060E94990638F00E94A00620F095233D
S1130E6011F00C9482060C94960611240C941A0723
S1130E700E94F70670F3959FC1F3950F50E0551F3C
S1130E80629FF001729FBB27F00DB11D639FAA27DB
S1130E90F00DB11DAA1F649F6627B00DA11D661F2A
S1130EA0829F2227B00DA11D621F739FB00DA11D4B
S1130EB0621F839FA00D611D221F749F3327A00D05
S1130EC0611D231F849F600D211D822F762F6A2FA1
S1130ED011249F5750409AF0F1F088234AF0EE0F06
S1130EE0FF1FBB1F661F771F881F91505040A9F733
S1130EF09E3F510580F00C9482060C941A075F3FC4
S1130F00E4F3983ED4F3869577956795B795F7956E
S1130F10E7959F5FC1F7FE2B880F911D96958795E6
S1130F2097F908959F938F937F936F93FF93EF9314
S1130F309B01AC010E942507EF91FF910E94A60737
S1130F402F913F914F915F910C942507DF93CF939D
S1130F501F930F93FF92EF92DF927B018C016894B1
S1130F6006C0DA2EEF010E943807FE01E894A5912D
S1130F702591359145915591A6F3EF010E94030502
S1130F80FE019701A801DA9469F7DF90EF90FF90D2
S1110F900F911F91CF91DF910895F894FFCF38
S1130F9E030303808080FF0000FF0100010000FFB7
S1130FAEFF0000010001FF0000000000000000002F
S1130FBE000000000000000000000000000000001F
S1130FCE0000000001010101010101010101010103
S1130FDE01020202020202020203030303030303D9
S1130FEE040404040405050505060606060707079A
S1130FFE070808080909090A0A0A0B0B0B0C0C0D41
S113100E0D0D0E0E0F0F10101111121213131414C6
S113101E1515161617181819191A1B1B1C1D1D1E2B
S113102E1F202021222323242526272728292A2B63
S113103E2C2D2E2F303132323334363738393A3B69
S113104E3C3D3E3F40424344454648494A4B4D4E43
S113105E4F515253555657595A5C5D5F60626365E2
S113106E6668696B6D6E7072737577787A7C7E7F45
S113107E81838587898A8C8E90929496989A9C9E69
S113108EA0A2A4A7A9ABADAFB1B4B6B8BABDBFC147
S113109EC4C6C8CBCDD0D2D5D7DADCDFE1E4E7E9DC
S10B10AEECEFF1F4F7F9FCFF8B
S9030000FC
